:020000040000fa
:080000000002040000000000f2
:020000040000fa
:100008009a0200009a0200009a0200009a02000078
:100018009a0200009a0200009a0200009a02000068
:100028009a0200009a0200009a0200009a02000058
:100038009a0200009a0200009a0200009a02000048
:020000040000fa
:020000040000fa
:10040000cfa020000eff27000e0188000000000092
:10041000000020000000e000020032000001200087
:10042000200288000c00070080ae2100010020009f
:1004300011000700000020000000e0000200320070
:100440000000020000000000fe1a02000000000090
:100450000040da000000fe004440a90080012000b6
:100460000000e0000300320000002000a00188002e
:100470004440a80000000600910188008000780038
:100480000000eb0015003700e280400032a0b4000d
:100490009101ba00e280400032a0b4009102ba009b
:1004a000e280400032a0b4000002eb00472bde00e7
:1004b000f507b200602ce10004003a000059eb009f
:1004c0008301e900fdff3e00040037006128e100e0
:1004d000010032000082eb00040007001101ba00a5
:1004e0000200e000e8ff3a00000006003159ba00bf
:1004f0008301e9000c0032002159ba008301e900b0
:10050000080032000400e00003003a00e2804000ee
:1005100032a0b400f5ff370011d9ba008301e90019
:10052000faff3a008100e800e180400032a0b40008
:0c053000000006000040da000000fe00a1
:020000040000fa
:10053c00010000000000000000ff00003700000078
:10054c000000000000ff0000290000000000000077
:10055c0000ff0000180000000000000000ff000079
:020000040000fa
:10056c000400fa00100798000000eb00000f780060
:10057c00e642a9000e0037001e00900010407800e3
:10058c000000fb0001fe2f00010f40001e00780050
:10059c0023000700e082a800e082a9001e00900062
:1005ac000000e80010079800400620000600070035
:1005bc001e009000104078000004e000eeff3a00ae
:1005cc000080fa00000006000600fa0020079800e0
:1005dc000000eb00000f78000b0037000000eb0070
:1005ec0010079800030037001e0090000000e80080
:1005fc00100798009e0090002e009000808f5000f5
:10060c00f9ff35001e0fe800f0e124009e00780091
:10061c00808f5000f1ff34000080fa0000000600cb
:10062c00561efa0041e52100810047008008780041
:10063c00e4004700270f09008018eb001000200091
:10064c0001002000003f9800113f9800100020008e
:10065c0001002000203f9800313f9800100020003e
:10066c0001002000403f9800513f980010002000ee
:10067c00010020002087980031879800100020008e
:10068c0001002000009f9800119f9800100020008e
:10069c000100200040a7980051a7980010002000ee
:1006ac000100200020af980031af9800100020000e
:1006bc000100200040af980051af980010002000be
:1006cc000100200040bf980051bf9800100020008e
:1006dc00010020002007990031079900100020002c
:1006ec00010020000017990011179900100020003c
:1006fc0001002000401799005117990010002000ac
:10070c0001002000001f9900111f9900100020000b
:10071c0001002000401f9900511f9900100020007b
:10072c00010020006027990071279900100020001b
:10073c0001002000202f9900312f9900100020007b
:10074c0001002000602f9900712f990010002000eb
:10075c00010020000037990011379900100020008b
:10076c0001002000603799007137990010002000bb
:10077c0001002000003f9900113f9900100020005b
:10078c0001002000403f9900513f990010002000cb
:10079c0001002000008799001187990010002000ab
:1007ac00010020002087990031879900100020005b
:1007bc00010020004087990051879900100020000b
:1007cc00010020000097990011979900100020005b
:1007dc00010020002097990031979900100020000b
:1007ec00010020006097990071979900100020007b
:1007fc0001002000009f9900119f9900100020001b
:10080c0001002000609f9900719f9900100020004a
:10081c000100200020a7990031a7990010002000aa
:10082c000100200040a7990051a79900100020005a
:10083c000100200000af990011af990010002000ba
:10084c000100200020af990031af9900100020006a
:10085c000100200040af990051af9900100020001a
:10086c000100200040b7990051b7990010002000fa
:10087c000100200060b7990071b7990010002000aa
:10088c000100200040bf990051bf990010002000ca
:10089c000100200060bf990071bf9900100020007a
:1008ac0001002000400f9a00510f9a001000200008
:1008bc0001002000600f9a00710f9a0010002000b8
:1008cc000100200000179a0011179a001000200058
:1008dc000100200020179a0031179a001000200008
:1008ec000100200040379a0051379a001000200078
:1008fc0001002000408f9a00518f9a0010002000b8
:10090c0001002000209f9a00319f9a0010002000c7
:10091c000100200000b79a0011b79a0010002000c7
:10092c000100200060079b0071079b001000200055
:10093c0001002000001f9b00111f9b0010002000d5
:10094c0001002000201f9b00311f9b001000200085
:10095c0001002000401f9b00511f9b001000200035
:10096c0001002000002f9b00112f9b001000200085
:10097c0001002000202f9b00312f9b001000200035
:10098c0001002000402f9b00512f9b0010002000e5
:10099c0001002000602f9b00712f9b001000200095
:1009ac000100200000379b0011379b001000200035
:1009bc000100200020879b0031879b001000200045
:1009cc000100200000979b0011979b001000200055
:1009dc000100200040979b0051979b0010002000c5
:1009ec0001002000009f9b00119f9b001000200025
:1009fc000100200020bf9b0031bf9b000044200061
:100a0c000001470010002000010020000089be00fa
:100a1c0000452000000147001000200001002000cc
:100a2c000089be0040482000000147001000200053
:100a3c00010020000089be00c04b200000014700cf
:100a4c0010002000010020000089be00004c200096
:100a5c000001470010002000010020000089be00aa
:100a6c00004f200000014700100020000100200072
:100a7c000089be00805020000001470010002000bb
:100a8c00010020000089be00c0502000000147007a
:100a9c0010002000010020000089be000051200041
:100aac000001470010002000010020000089be005a
:100abc00c051200000014700100020000100200060
:100acc000089be00005220000001470010002000e9
:100adc00010020000089be00805220000001470068
:100aec0010002000010020000089be00c052200030
:100afc000001470010002000010020000089be000a
:100b0c00405320000001470010002000010020008d
:100b1c000089be0040542000000147001000200056
:100b2c00010020000089be00805420000001470015
:100b3c0010002000010020000089be00005720009a
:100b4c000001470010002000010020000089be00b9
:100b5c0080572000000147001000200001002000f9
:100b6c000089be0040582000000147001000200002
:100b7c00010020000089be00805a200000014700bf
:100b8c0010002000010020000089be00c05a200087
:100b9c000001470010002000010020000089be0069
:100bac00c05b200000014700100020000100200065
:100bbc000089be00805c200000014700100020006e
:100bcc00010020000089be00c05c2000000147002d
:100bdc0010002000010020000089be00005d2000f4
:100bec000001470010002000010020000089be0019
:100bfc00005e2000000147001000200001002000d2
:100c0c000089be00405e200000014700100020005b
:100c1c00010020000089be00c05f200000014700d9
:100c2c0010002000010020000089be00c0602000e0
:100c3c000001470010002000010020000089be00c8
:100c4c00006120000001470010002000010020007e
:100c5c000089be00806120000001470010002000c8
:100c6c00010020000089be00c06120000001470087
:100c7c0010002000010020000089be00006220004e
:100c8c000001470010002000010020000089be0078
:100c9c0040632000000147001000200001002000ec
:100cac000089be00006620000001470010002000f3
:100cbc00010020000089be00806620000001470072
:100ccc0010002000010020000089be0000672000f9
:100cdc000001470010002000010020000089be0028
:100cec0000682000000147001000200001002000d7
:100cfc000089be0080682000000147001000200021
:100d0c00010020000089be00c069200000014700de
:100d1c0010002000010020000089be00c06a2000e5
:100d2c000001470010002000010020000089be00d7
:100d3c00006b200000014700100020000100200083
:100d4c000089be00c06b200000014700100020008d
:100d5c00010020000089be00006c2000000147004b
:100d6c0010002000010020000089be00006d200052
:100d7c000001470010002000010020000089be0087
:100d8c00406d2000000147001000200001002000f1
:100d9c000089be00806d200000014700100020007b
:100dac00010020000089be00806e20000001470079
:100dbc0010002000010020000089be00c06e200041
:100dcc000001470010002000010020000089be0037
:100ddc00c06f20000001470010002000010020001f
:100dec000089be00007020000001470010002000a8
:100dfc00010020000089be000071200000014700a6
:100e0c0010002000010020000089be0000722000ac
:100e1c000001470010002000010020000089be00e6
:100e2c00407220000001470010002000010020004b
:100e3c000089be00807220000001470010002000d5
:100e4c00010020000089be00007520000001470051
:100e5c0010002000010020000089be0080752000d9
:100e6c000001470010002000010020000089be0096
:100e7c00c075200000014700100020000100200078
:100e8c000089be00407720000001470010002000c0
:100e9c00010020000089be0080782000000147007e
:100eac0010002000010020000089be00c078200046
:100ebc000001470010002000010020000089be0046
:100ecc00c079200000014700100020000100200024
:100edc000089be00007a20000001470010002000ad
:100eec00010020000089be00807a2000000147002c
:100efc0010002000010020000089be00c07a2000f4
:100f0c000001470010002000010020000089be00f5
:100f1c00007b200000014700100020000100200091
:100f2c000089be00007c200000014700100020005a
:100f3c00010020000089be00407c20000001470019
:100f4c0010002000010020000089be00807c2000e1
:100f5c000001470010002000010020000089be00a5
:100f6c00c07e20000001470010002000010020007e
:100f7c000089be00007f2000000147001000200007
:100f8c00010020000089be00807f20000001470086
:100f9c0010002000010020000089be00c07f20004e
:100fac000001470010002000010020000089be0055
:100fbc0000802000000147001000200001002000ec
:100fcc000089be00008120000001470010002000b5
:100fdc00010020000089be00408120000001470074
:100fec0010002000010020000089be00808120003c
:100ffc000001470010002000010020000089be0005
:10100c004083200000014700100020000100200058
:10101c000089be00808520000001470010002000e0
:10102c00010020000089be0000882000000147005c
:10103c0010002000010020000089be00808a2000e2
:10104c000001470010002000010020000089be00b4
:10105c00808d2000000147001000200001002000be
:10106c000089be00408f20000001470010002000c6
:10107c00010020000089be00009020000001470004
:10108c0010002000010020000089be00c09120004b
:10109c000001470010002000010020000089be0064
:1010ac00c092200000014700100020000100200029
:1010bc000089be00009420000001470010002000b1
:1010cc00010020000089be0040952000000147006f
:1010dc0010002000010020000089be0000972000b5
:1010ec000001470010002000010020000089be0014
:1010fc000099200000014700100020000100200092
:10110c000089be00c099200000014700100020009b
:10111c00010020000089be00409c20000001470017
:10112c0010002000010020000089be00409d20001e
:10113c000001470010002000010020000089be00c3
:10114c00809d2000000147001000200001002000bd
:10115c000089be00c09d2000000147001000200047
:10116c00010020000089be00009e20000001470005
:10117c0010002000010020000089be00409f2000cc
:10118c000001470010002000010020000089be0073
:10119c0080a020000001470010002000010020006a
:1011ac000089be00c0a020000001470010002000f4
:1011bc00010020000089be00c0a1200000014700f2
:1011cc0010002000010020000089be00c0a22000f9
:1011dc000001470010002000010020000089be0023
:1011ec0000a3200000014700100020000100200097
:1011fc000089be0040a32000000147001000200021
:10120c00010020000089be0040a42000000147001e
:10121c0010002000010020000089be0080a42000e6
:10122c000001470010002000010020000089be00d2
:10123c0080a52000000147001000200001002000c4
:10124c000089be0000a7200000014700100020000c
:10125c00010020000089be0080a72000000147008b
:10126c0010002000010020000089be00c0a7200053
:10127c000001470010002000010020000089be0082
:10128c0000a82000000147001000200001002000f1
:10129c000089be0000a920000001470010002000ba
:1012ac00010020000089be0040a920000001470079
:1012bc0010002000010020000089be0080a9200041
:1012cc000001470010002000010020000089be0032
:1012dc00c0aa2000000147001000200001002000df
:1012ec000089be0040ab2000000147001000200028
:1012fc00010020000089be00c0ab200000014700a7
:10130c0010002000010020000089be0000ac20006d
:10131c000001470010002000010020000089be00e1
:10132c0080ac2000000147001000200001002000cc
:10133c000089be00c0ac2000000147001000200056
:10134c00010020000089be0000ad20000001470014
:10135c0010002000010020000089be0080ad20009c
:10136c000001470010002000010020000089be0091
:10137c0040ae2000000147001000200001002000ba
:10138c000089be0080af2000000147001000200043
:10139c00010020000089be00c0af20000001470002
:1013ac0010002000010020000089be00c0b0200009
:1013bc000001470010002000010020000089be0041
:1013cc00c0b12000000147001000200001002000e7
:1013dc000089be0040b3200000014700100020002f
:1013ec00010020000089be0080b3200000014700ee
:1013fc0010002000010020000089be00c0b42000b5
:10140c000001470010002000010020000089be00f0
:10141c0040b5200000014700100020000100200012
:10142c000089be00c0b5200000014700100020005c
:10143c00010020000089be0000b62000000147001a
:10144c0010002000010020000089be0080b62000a2
:10145c000001470010002000010020000089be00a0
:10146c00c0b6200000014700100020000100200041
:10147c000089be0080b7200000014700100020004a
:10148c00010020000089be0040b820000001470088
:10149c0010002000010020000089be0080b920004f
:1014ac000001470010002000010020000089be0050
:1014bc00c0b92000000147001000200001002000ee
:1014cc000089be00c0ba20000001470010002000b7
:1014dc00010020000089be00c0bb200000014700b5
:1014ec0010002000010020000089be0000bd20007b
:1014fc000001470010002000010020000089be0000
:10150c0040bd200000014700100020000100200019
:10151c000089be0080bd20000001470010002000a3
:10152c00010020000089be0080be200000014700a1
:10153c0010002000010020000089be00c0c0200067
:10154c000001470010002000010020000089be00af
:10155c0000c2200000014700100020000100200004
:10156c000089be0040c2200000014700100020008e
:10157c00010020000089be0080c22000000147004d
:10158c0010002000010020000089be0080c3200054
:10159c000001470010002000010020000089be005f
:1015ac00c0c32000000147001000200001002000f3
:1015bc000089be00c0c420000001470010002000bc
:1015cc00010020000089be0000c52000000147007a
:1015dc0010002000010020000089be00c0c52000c2
:1015ec000001470010002000010020000089be000f
:1015fc0000c6200000014700100020000100200060
:10160c000089be0040c720000001470010002000e8
:10161c00010020000089be0080c7200000014700a7
:10162c0010002000010020000089be0080c82000ae
:10163c000001470010002000010020000089be00be
:10164c0000ca20000001470010002000010020000b
:10165c000089be0080ca2000000147001000200055
:10166c00010020000089be0000cb200000014700d3
:10167c0010002000010020000089be0000cc2000da
:10168c000001470010002000010020000089be006e
:10169c0080cc200000014700100020000100200039
:1016ac000089be00c0cd20000001470010002000c2
:1016bc00010020000089be0040ce20000001470040
:1016cc0010002000010020000089be00c0ce2000c8
:1016dc000001470010002000010020000089be001e
:1016ec00c0cf2000000147001000200001002000a6
:1016fc000089be0080d020000001470010002000af
:10170c00010020000089be0040d1200000014700ec
:10171c0010002000010020000089be0080d22000b3
:10172c000001470010002000010020000089be00cd
:10173c00c0d2200000014700100020000100200052
:10174c000089be00c0d3200000014700100020001b
:10175c00010020000089be0000d4200000014700d9
:10176c0010002000010020000089be0080d4200061
:10177c000001470010002000010020000089be007d
:10178c0080d720000001470010002000010020003d
:10179c000089be0080d82000000147001000200006
:1017ac00010020000089be0040da20000001470043
:1017bc0010002000010020000089be0000db20008a
:1017cc000001470010002000010020000089be002d
:1017dc0080db2000000147001000200001002000e9
:1017ec000089be0080dc20000001470010002000b2
:1017fc00010020000089be00c0dc20000001470071
:10180c0010002000010020000089be00c0dd200077
:10181c000001470010002000010020000089be00dc
:10182c0080e0200000014700100020000100200093
:10183c000089be0080e1200000014700100020005c
:10184c00010020000089be0000e3200000014700d9
:10185c0010002000010020000089be0080e3200061
:10186c000001470010002000010020000089be008c
:10187c0040e420000001470010002000010020007f
:10188c000089be00c0e420000001470010002000c9
:10189c00010020000089be0080e520000001470007
:1018ac0010002000010020000089be0080e620000e
:1018bc000001470010002000010020000089be003c
:1018cc0080e72000000147001000200001002000ec
:1018dc000089be0000e82000000147001000200035
:1018ec00010020000089be0080e8200000014700b4
:1018fc0010002000010020000089be00c0e920007b
:10190c000001470010002000010020000089be00eb
:10191c0080ea200000014700100020000100200098
:10192c000089be0080eb2000000147001000200061
:10193c00010020000089be00c0eb20000001470020
:10194c0010002000010020000089be00c0ec200027
:10195c000001470010002000010020000089be009b
:10196c0000ed2000000147001000200001002000c5
:10197c000089be0080ed200000014700100020000f
:10198c00010020000089be00c0ed200000014700ce
:10199c0010002000010020000089be0040ef200054
:1019ac000001470010002000010020000089be004b
:1019bc0080ef2000000147001000200001002000f3
:1019cc000089be0080f020000001470010002000bc
:1019dc00010020000089be0080f2200000014700b9
:1019ec0010002000010020000089be00c0f2200081
:1019fc000001470010002000010020000089be00fb
:101a0c0000f320000001470010002000010020001e
:101a1c000089be0000f420000001470010002000e7
:101a2c00010020000089be0040f4200000014700a6
:101a3c0010002000010020000089be0080f420006e
:101a4c000001470010002000010020000089be00aa
:101a5c0080f520000001470010002000010020004c
:101a6c000089be00c0f520000001470010002000d6
:101a7c00010020000089be0080f620000001470014
:101a8c0010002000010020000089be00c0f62000dc
:101a9c000001470010002000010020000089be005a
:101aac0000f720000001470010002000010020007a
:101abc000089be0080f720000001470010002000c4
:101acc00010020000089be00c0f720000001470083
:101adc0010002000010020000089be0040f9200009
:101aec000001470010002000010020000089be000a
:101afc0080f92000000147001000200001002000a8
:101b0c000089be0080fa2000000147001000200070
:101b1c00010020000089be0080fb2000000147006e
:101b2c0010002000010020000089be0080fc200075
:101b3c000001470010002000010020000089be00b9
:101b4c00c0fc200000014700100020000100200014
:101b5c000089be0000fd200000014700100020009d
:101b6c00010020000089be0000fe2000000147009b
:101b7c0010002000010020000089be0040fe200063
:101b8c000001470010002000010020000089be0069
:101b9c0080fe200000014700100020000100200002
:101bac000089be00c0ff200000014700100020008b
:101bbc00010020000089be00c00021000001470088
:101bcc0010002000010020000089be00000121004f
:101bdc000001470010002000010020000089be0019
:101bec00c00121000001470010002000010020006e
:101bfc000089be00000221000001470010002000f7
:101c0c00010020000089be000003210000014700f4
:101c1c0010002000010020000089be0040032100bc
:101c2c000001470010002000010020000089be00c8
:101c3c00800321000001470010002000010020005b
:101c4c000089be0040052100000147001000200063
:101c5c00010020000089be00c006210000014700e1
:101c6c0010002000010020000089be008007210028
:101c7c000001470010002000010020000089be0078
:101c8c004008210000014700100020000100200046
:101c9c000089be00800921000001470010002000cf
:101cac00010020000089be00c0092100000147008e
:101cbc0010002000010020000089be00c00a210095
:101ccc000001470010002000010020000089be0028
:101cdc00000b210000014700100020000100200033
:101cec000089be00800b210000014700100020007d
:101cfc00010020000089be00800d2100000147007a
:101d0c0010002000010020000089be00800e210080
:101d1c000001470010002000010020000089be00d7
:101d2c00000f2100000147001000200001002000de
:101d3c000089be0040112100000147001000200066
:101d4c00010020000089be00801221000001470024
:101d5c0010002000010020000089be00801321002b
:101d6c000001470010002000010020000089be0087
:101d7c000014210000014700100020000100200089
:101d8c000089be00801421000001470010002000d3
:101d9c00010020000089be00001521000001470051
:101dac0010002000010020000089be0080152100d9
:101dbc000001470010002000010020000089be0037
:101dcc0080172100000147001000200001002000b6
:101ddc000089be00001921000001470010002000fe
:101dec00010020000089be0080192100000147007d
:101dfc0010002000010020000089be00401b2100c3
:101e0c000001470010002000010020000089be00e6
:101e1c00c01b210000014700100020000100200021
:101e2c000089be00401e2100000147001000200068
:101e3c00010020000089be00801f21000001470026
:101e4c0010002000010020000089be0000202100ad
:101e5c000001470010002000010020000089be0096
:101e6c00002121000001470010002000010020008b
:101e7c000089be00802121000001470010002000d5
:101e8c00010020000089be00c02221000001470093
:101e9c0010002000010020000089be00002321005a
:101eac000001470010002000010020000089be0046
:101ebc00c023210000014700100020000100200079
:101ecc000089be00c0242100000147001000200042
:101edc00010020000089be004025210000014700c0
:101eec0010002000010020000089be0040262100c7
:101efc000001470010002000010020000089be00f6
:101f0c0040282100000147001000200001002000a3
:101f1c000089be00c02821000001470010002000ed
:101f2c00010020000089be00c029210000014700eb
:101f3c0010002000010020000089be00802a210032
:101f4c000001470010002000010020000089be00a5
:101f5c00802d21000001470010002000010020000e
:101f6c000089be00802f21000001470010002000d6
:101f7c00010020000089be00c02f21000001470095
:101f8c0010002000010020000089be00c03221009a
:101f9c000001470010002000010020000089be0055
:101fac000033210000014700100020000100200038
:101fbc000089be0080332100000147001000200082
:101fcc00010020000089be00c03321000001470041
:101fdc0010002000010020000089be000037210005
:101fec000001470010002000010020000089be0005
:101ffc008037210000014700100020000100200064
:10200c000089be00c03b21000001470010002000e9
:10201c00010020000089be00c03c210000014700e7
:10202c0010002000010020000089be00c0432100e8
:10203c000001470010002000010020000089be00b4
:10204c008045210000014700100020000100200005
:10205c000089be00c045210000014700100020008f
:10206c00010020000089be0040462100000147000d
:10207c0010002000010020000089be0080462100d5
:10208c000001470010002000010020000089be0064
:10209c000049210000014700100020000100200031
:1020ac000089be00804a210000014700100020007a
:1020bc00010020000089be00c04a21000001470039
:1020cc0010002000010020000089be00404b2100c0
:1020dc000001470010002000010020000089be0014
:1020ec00004e2100000147001000200001002000dc
:1020fc000089be00804e2100000147001000200026
:10210c00010020000089be00804f21000001470023
:10211c0010002000010020000089be00c04f2100eb
:10212c000001470010002000010020000089be00c3
:10213c000053210000014700100020000100200086
:10214c000089be00805421000001470010002000cf
:10215c00010020000089be00c0542100000147008e
:10216c0010002000010020000089be004055210015
:10217c000001470010002000010020000089be0073
:10218c0080572100000147001000200001002000b2
:10219c000089be00005821000001470010002000fb
:1021ac00010020000089be00805921000001470079
:1021bc0010002000010020000089be00c059210041
:1021cc000001470010002000010020000089be0023
:1021dc00005a2100000147001000200001002000df
:1021ec000089be00c05a21000001470010002000e9
:1021fc00010020000089be00005d210000014700a5
:10220c0010002000010020000089be00405f21006a
:10221c000001470010002000010020000089be00d2
:10222c00c0602100000147001000200001002000c8
:10223c000089be0000612100000147001000200051
:10224c00010020000089be008061210000014700d0
:10225c0010002000010020000089be000062210057
:10226c000001470010002000010020000089be0082
:10227c00c063210000014700100020000100200075
:10228c000089be00406421000001470010002000be
:10229c00010020000089be0080662100000147007b
:1022ac0010002000010020000089be000067210002
:1022bc000001470010002000010020000089be0032
:1022cc0040672100000147001000200001002000a1
:1022dc000089be008067210000014700100020002b
:1022ec00010020000089be00806821000001470029
:1022fc0010002000010020000089be004069210070
:10230c000001470010002000010020000089be00e1
:10231c00006c21000001470010002000010020008b
:10232c000089be00806c21000001470010002000d5
:10233c00010020000089be00406e21000001470012
:10234c0010002000010020000089be0080722100d6
:10235c000001470010002000010020000089be0091
:10236c00c072210000014700100020000100200075
:10237c000089be00407321000001470010002000be
:10238c00010020000089be0080752100000147007b
:10239c0010002000010020000089be0040782100c0
:1023ac000001470010002000010020000089be0041
:1023bc00807821000001470010002000010020005f
:1023cc000089be00407a2100000147001000200067
:1023dc00010020000089be00807a21000001470026
:1023ec0010002000010020000089be00407d21006b
:1023fc000001470010002000010020000089be00f1
:10240c00807f210000014700100020000100200007
:10241c000089be00808121000001470010002000cf
:10242c00010020000089be0040822100000147000d
:10243c0010002000010020000089be000083210054
:10244c000001470010002000010020000089be00a0
:10245c000084210000014700100020000100200032
:10246c000089be00008521000001470010002000fb
:10247c00010020000089be00808621000001470079
:10248c0010002000010020000089be0040872100c0
:10249c000001470010002000010020000089be0050
:1024ac00008a2100000147001000200001002000dc
:1024bc000089be00808b2100000147001000200025
:1024cc00010020000089be00c08b210000014700e4
:1024dc0010002000010020000089be00408c21006b
:1024ec000001470010002000010020000089be0000
:1024fc00008f210000014700100020000100200087
:10250c000089be00809021000001470010002000cf
:10251c00010020000089be008093210000014700cb
:10252c0010002000010020000089be000094210052
:10253c000001470010002000010020000089be00af
:10254c0040942100000147001000200001002000f1
:10255c000089be008094210000014700100020007b
:10256c00010020000089be004096210000014700b8
:10257c0010002000010020000089be00809821007e
:10258c000001470010002000010020000089be005f
:10259c0000992100000147001000200001002000dc
:1025ac000089be0040992100000147001000200066
:1025bc00010020000089be00809921000001470025
:1025cc0010002000010020000089be00809a21002c
:1025dc000001470010002000010020000089be000f
:1025ec00009e210000014700100020000100200087
:1025fc000089be00c09f2100000147001000200090
:10260c00010020000089be0040a02100000147000d
:10261c0010002000010020000089be0000a3210052
:10262c000001470010002000010020000089be00be
:10263c0040a32100000147001000200001002000f1
:10264c000089be0080a3210000014700100020007b
:10265c00010020000089be0040a5210000014700b8
:10266c0010002000010020000089be0000a72100fe
:10267c000001470010002000010020000089be006e
:10268c0080a721000001470010002000010020005d
:10269c000089be0000a821000001470010002000a6
:1026ac00010020000089be0080a921000001470024
:1026bc0010002000010020000089be00c0a92100ec
:1026cc000001470010002000010020000089be001e
:1026dc0040aa21000001470010002000010020004a
:1026ec000089be0080ae21000001470010002000d0
:1026fc00010020000089be0000af2100000147004e
:10270c0010002000010020000089be0080b32100d1
:10271c000001470010002000010020000089be00cd
:10272c0000b421000001470010002000010020002f
:10273c000089be0080b42100000147001000200079
:10274c00010020000089be0000b5210000014700f7
:10275c0010002000010020000089be0000b92100fb
:10276c000001470010002000010020000089be007d
:10277c0080b921000001470010002000010020005a
:10278c000089be0040bb2100000147001000200062
:10279c00010020000089be00c0bb210000014700e1
:1027ac0010002000010020000089be0040be210066
:1027bc000001470010002000010020000089be002d
:1027cc0040c0210000014700100020000100200043
:1027dc000089be00c0c0210000014700100020008d
:1027ec00010020000089be00c0c22100000147008a
:1027fc0010002000010020000089be0000c3210051
:10280c000001470010002000010020000089be00dc
:10281c0000c621000001470010002000010020002c
:10282c000089be0040c821000001470010002000b4
:10283c00010020000089be00c0c821000001470033
:10284c0010002000010020000089be00c0c921003a
:10285c000001470010002000010020000089be008c
:10286c0080ca210000014700100020000100200058
:10287c000089be0000cb21000001470010002000a1
:10288c00010020000089be0080cc2100000147001f
:10289c0010002000010020000089be0080d0210023
:1028ac000001470010002000010020000089be003c
:1028bc00c0d22100000147001000200001002000c0
:1028cc000089be0000d32100000147001000200049
:1028dc00010020000089be0080d3210000014700c8
:1028ec0010002000010020000089be00c0d3210090
:1028fc000001470010002000010020000089be00ec
:10290c0000d421000001470010002000010020002d
:10291c000089be0040d921000001470010002000b2
:10292c00010020000089be00c0d921000001470031
:10293c0010002000010020000089be00c0dd210035
:10294c000001470010002000010020000089be009b
:10295c0040df210000014700100020000100200092
:10296c000089be0040e0210000014700100020005b
:10297c00010020000089be0080e02100000147001a
:10298c0010002000010020000089be00c0e02100e2
:10299c000001470010002000010020000089be004b
:1029ac0000e1210000014700100020000100200080
:1029bc000089be0040e1210000014700100020000a
:1029cc00010020000089be0080e1210000014700c9
:1029dc0010002000010020000089be00c0e1210091
:1029ec000001470010002000010020000089be00fb
:1029fc0000e221000001470010002000010020002f
:102a0c000089be0040e221000001470010002000b8
:102a1c00010020000089be0080e221000001470077
:102a2c0010002000010020000089be00c0e221003f
:102a3c000001470010002000010020000089be00aa
:102a4c0000e32100000147001000200001002000dd
:102a5c000089be0040e32100000147001000200067
:102a6c00010020000089be0080e321000001470026
:102a7c0010002000010020000089be00c0e32100ee
:102a8c000001470010002000010020000089be005a
:102a9c0000e421000001470010002000010020008c
:102aac000089be0040e42100000147001000200016
:102abc00010020000089be0080e4210000014700d5
:102acc0010002000010020000089be00c0e421009d
:102adc000001470010002000010020000089be000a
:102aec0000e521000001470010002000010020003b
:102afc000089be000000eb00100798003001200098
:102b0c00000f78001a00370040e521000000470054
:102b1c00100078007400b900000078001e0040001e
:102b2c004200dd00e4004700008040001000be00c1
:102b3c00100798001e009000004078006140600073
:102b4c000080fb00610060004200dd001216800076
:102b5c00b1ff2f0081006100010070001016880089
:102b6c00c222a900c222a800c242a9001e0fe9007d
:102b7c001e0078000000e000e3ff3d000080fa003a
:102b8c00000006000400fa00100798000000eb009b
:102b9c00000f78000000eb00000f780009003700f0
:102bac001e00900090407800c08020001e00400065
:102bbc00014878001e0090000000e8001007980003
:102bcc001e0fe800f01f20009e007800808f500040
:102bdc00f3ff340050408000cf80de00d3000700ac
:102bec0050408000cf80de005d0007005040800028
:102bfc000000e800504088000080fa000000060049
:102c0c000600fa000040eb00004f7800606d2d00cc
:102c1c0001002000100798002107980010002000e8
:102c2c00010020003040880041408800e40107008a
:102c3c0036010700004f780002003700330107000f
:102c4c00004f78001e4078000004e000fbff3a00c3
:102c5c001e009000ae00900041000700004f78006d
:102c6c001e4078000004e000f6ff3a00000b200044
:102c7c0001002000ad000700000b20000100200027
:102c8c0037000700100020000100200000408800e1
:102c9c00114088000468ef000040eb000080fa004f
:102cac00000006000000fa001000200001002000c7
:102cbc0000408800114088000080fa0000000600e7
:102ccc000200fa00000f7800c08020001e004000b7
:102cdc00104078000080fa00000006000400fa00a2
:102cec00000f780021479800c08020001e00400093
:102cfc00ae409000014878000080fa000000060009
:102d0c000000fa000040800011408000870007009e
:102d1c00004080001140800061004000e0804800cd
:102d2c0000408800114088000080fa000000060076
:102d3c000000fa00004080001140800008000700ed
:102d4c00004080001140800061004000e08048009d
:102d5c0000408800114088000080fa000000060046
:102d6c001000fa0060079800710798000040eb0013
:102d7c00504798000000eb001007980010c0b300fb
:102d8c004047980002003700e000070040479800d9
:102d9c004e4090000004e000fbff3a006e019000f2
:102dac00fe0190004918dd00c710de0081007000a4
:102dbc004910dd00600798007107980010c1b3003e
:102dcc00604798006e009000fe0090004808de00fe
:102ddc0000407800704798006e019000fe01900052
:102dec0000002000f10f200002027800030178009f
:102dfc00800178000100780003026200000061008d
:102e0c008000eb00c000dd00000020000001be00cf
:102e1c006120b80000017100818171004018de0052
:102e2c000100200000407800004f98006e019000d7
:102e3c00fe01900000f02f0001002000020278003b
:102e4c000301780080017800010078000302620021
:102e5c00000061008000eb00c000dd0000002000dd
:102e6c000001be006120b800000171008181710079
:102e7c00481add004810de0000007200c818de00a1
:102e8c0000407800104f98006e00900000407800d1
:102e9c00204f980000c0eb00304f9800ce22a900c4
:102eac006600470054010700504798005e409000b0
:102ebc000004e0000200320030c0b30019003700fb
:102ecc009d010700504798005e409000e24f400083
:102edc00fbff3a00c0802000000f78000000eb00e0
:102eec001007980007003700930107009e00780038
:102efc00804878001e0fe8001e0090000000e800db
:102f0c00100798009e009000f01f2000808f50004a
:102f1c00f5ff3600ce22a80000c0eb007b010700b5
:102f2c000040eb000080fa00000006001000fa00e0
:102f3c00600798007107980010c0b30050479800c4
:102f4c000200370071000700504798005e40900067
:102f5c000004e000fbff3a00e6004700022b2800cb
:102f6c0005000900b25878006e019000fe01900037
:102f7c004918dd00c710de00810070004910dd002b
:102f8c0060079800710798006e009000fe0090009a
:102f9c004808de0000407800704798006e019000f1
:102fac00fe01900000002000f10f200002027800ca
:102fbc0003017800800178000100780003026200b0
:102fcc00000061008000eb00c000dd00000020006c
:102fdc000001be006120b800000171008181710008
:102fec004018de000100200000407800004f9800df
:102ffc006e019000fe01900000f02f0001002000f7
:10300c00020278000301780080017800010078004a
:10301c0003026200000061008000eb00c000dd00d4
:10302c00000020000001be006120b800000171000a
:10303c0081817100481add004810de00000072002a
:10304c00c818de0000407800104f98006e00900009
:10305c0000407800204f9800ce22a900660047005f
:10306c00e5000700404798004e4090000004e00047
:10307c000200320010c0b30022003700e0cfb300d2
:10308c0022010700c0802000000f78000000eb0038
:10309c0010079800070037001e00780010407800d9
:1030ac001a0107001e0fe8001e0090000000e80047
:1030bc00100798009e009000f01f2000808f500099
:1030cc00f5ff360000c0eb001001070000c0eb005c
:1030dc000e01070018010700404798000200370056
:1030ec0015010700404798004e409000e14f40000a
:1030fc00fbff3a00ce22a80000c0eb000301070042
:10310c000040eb000080fa00000006001c00fa00f2
:10311c000000eb00000f7800ce22a8000000eb00ae
:10312c00000f7800010037001e0fe8001e00780029
:10313c000000e000fcff3a000000eb00000f7800fc
:10314c00010037001e0fe8001e0078000000e000b0
:10315c00fcff3a000000eb00000f78000100370084
:10316c001e0fe8001e0078000000e000fcff3a0093
:10317c000000eb00000f7800010037001e0fe80084
:10318c001e0078000000e000fcff3a000040eb005d
:10319c00204798001f0037000000eb00000f78005c
:1031ac00010037001e0fe8001e0078000000e00050
:1031bc00fcff3a000000eb00000f78000100370024
:1031cc001e0fe8001e0078000000e000fcff3a0033
:1031dc000000eb00000f7800010037001e0fe80024
:1031ec001e0078000000e000fcff3a000000eb003d
:1031fc00000f7800010037001e0fe8001e00780059
:10320c000000e000fcff3a002e4090000040e80077
:10321c00204798002e409000e94f5000deff36000a
:10322c000000eb00000f78000300370000c0eb003b
:10323c00b60007001e0fe8001e007800ef0f5000cc
:10324c00faff3600ce22a9000040eb003047980070
:10325c000040eb00404798000040eb0050479800be
:10326c000040eb00604798000040eb00704798006e
:10327c0050c9b300004f98000000eb00000f78001d
:10328c00630047005c0007002047980010c0b300a3
:10329c00210320001e017800810f510001003e0027
:1032ac000040eb001e0fe8000004e00002003200ba
:1032bc0010c0b300400037002e409000e14f50008a
:1032cc00efff3a00e9004700e22928000500090059
:1032dc00b25878000000eb00000f7800690047003e
:1032ec00450007002047980010c0b30021032000c0
:1032fc001e017800810f510001003e000040eb00e0
:10330c001e0fe8000004e0000200320020c0b300f1
:10331c00290037002e4090000080fb006100600007
:10332c00004078000004e000ecff3a00ef0047009a
:10333c00422a280005000900b25878006f004700a7
:10334c002d000700204798000000eb00000f7800cc
:10335c00f5004700a22a280005000900b2587800a1
:10336c0075004700240007002047980010c0b300e8
:10337c00210320001e017800810f510001003e0046
:10338c000040eb001e0fe8000004e00002003200d9
:10339c0030c0b300080037002e4090000080fb00c6
:1033ac0061006000004078000004e000ecff3a008f
:1033bc00ce22a8000040eb000080fa0000000600be
:1033cc000000fa00ce22a800cc22a900ce22a80030
:1033dc00e502a800e4c2a800e4e2a8000006200070
:1033ec00101388006422ef000000280000138800ee
:1033fc000080fa00000006000600fa002007980082
:10340c00701680000000d1006140600020479800d9
:10341c002e0090009040780000c4b30080c0700073
:10342c002e009000014878002e009000104078008b
:10343c00804078000174a1002e00900001487800b3
:10344c002e00900065004000ae009000e58040002a
:10345c00914078000104a00001487800ce22a90018
:10346c000000eb00000f7800070037002e009000e2
:10347c0010407800250007002e0090000000e800a6
:10348c00200798001e0fe8001e007800e50f500082
:10349c00f6ff36000000eb00000f78002600070056
:1034ac003047980000a62e009e007800808f5000b8
:1034bc0005003e001e0fe8003e409000e14f40002a
:1034cc00f6ff32000100370000000000ce22a800f9
:1034dc0000c0eb000d0007002e4090006140600022
:1034ec000080fb006100600000004000721680004c
:1034fc00d1ff2f0081006100010070007016880060
:10350c003e4090000080fa00000006000200fa0025
:10351c00004f78001e80fb00401388000000000064
:10352c0000138000620060000000e000fcff3a0025
:10353c000080fa00000006000200fa000013800070
:10354c00610060000000e0000500320040138000c4
:10355c00004f780060c2a9001e4078000b003700b5
:10356c00f00f2000401388000000000000138000c2
:10357c00620060000000e000fcff3a004013800095
:10358c00004f780060c2a9001e4078000080fa004d
:10359c00000006000000fa00de82a900c022a9008b
:1035ac00c042a900e442a900e462a900dea2a9007d
:1035bc00c0c2a900c0e2a900c1a2a9000080fa0003
:0435cc0000000600f5
:020000040000fa
:1035d0000c080000000200000000000000080000cd
:1035e0000a000000000000000a08000002000000bd
:0c35f000020000000100000000000000cc
:020000040000fa
:1035fc000c00fa00e7ff0700c3a2a8004006200059
:10360c00f1f30700c3a2a90040062000eef3070067
:04361c00f9ff37007b
:020000040000fa
:0200000401f009
:04000c00f8ff0000f9
:020000040000fa
:0200000401f009
:040010007eff00006f
:00000001FF
